{
  "contractName": "ShipmentContract",
  "abi": [
    {
      "inputs": [],
      "stateMutability": "payable",
      "type": "constructor",
      "payable": true
    },
    {
      "inputs": [
        {
          "internalType": "address",
          "name": "",
          "type": "address"
        }
      ],
      "name": "locations",
      "outputs": [
        {
          "internalType": "address",
          "name": "id",
          "type": "address"
        },
        {
          "internalType": "string",
          "name": "name",
          "type": "string"
        },
        {
          "internalType": "string",
          "name": "city",
          "type": "string"
        },
        {
          "internalType": "string",
          "name": "state",
          "type": "string"
        },
        {
          "internalType": "string",
          "name": "country",
          "type": "string"
        },
        {
          "internalType": "enum ShipmentContract.LocationType",
          "name": "locType",
          "type": "uint8"
        },
        {
          "internalType": "bool",
          "name": "is_verified",
          "type": "bool"
        }
      ],
      "stateMutability": "view",
      "type": "function",
      "constant": true
    },
    {
      "inputs": [
        {
          "internalType": "uint128",
          "name": "",
          "type": "uint128"
        }
      ],
      "name": "shipments",
      "outputs": [
        {
          "internalType": "uint128",
          "name": "id",
          "type": "uint128"
        },
        {
          "components": [
            {
              "internalType": "address",
              "name": "id",
              "type": "address"
            },
            {
              "internalType": "string",
              "name": "name",
              "type": "string"
            },
            {
              "internalType": "string",
              "name": "city",
              "type": "string"
            },
            {
              "internalType": "string",
              "name": "state",
              "type": "string"
            },
            {
              "internalType": "string",
              "name": "country",
              "type": "string"
            },
            {
              "internalType": "enum ShipmentContract.LocationType",
              "name": "locType",
              "type": "uint8"
            },
            {
              "internalType": "bool",
              "name": "is_verified",
              "type": "bool"
            }
          ],
          "internalType": "struct ShipmentContract.Location",
          "name": "source",
          "type": "tuple"
        },
        {
          "components": [
            {
              "internalType": "address",
              "name": "id",
              "type": "address"
            },
            {
              "internalType": "string",
              "name": "name",
              "type": "string"
            },
            {
              "internalType": "string",
              "name": "city",
              "type": "string"
            },
            {
              "internalType": "string",
              "name": "state",
              "type": "string"
            },
            {
              "internalType": "string",
              "name": "country",
              "type": "string"
            },
            {
              "internalType": "enum ShipmentContract.LocationType",
              "name": "locType",
              "type": "uint8"
            },
            {
              "internalType": "bool",
              "name": "is_verified",
              "type": "bool"
            }
          ],
          "internalType": "struct ShipmentContract.Location",
          "name": "current",
          "type": "tuple"
        },
        {
          "components": [
            {
              "internalType": "address",
              "name": "id",
              "type": "address"
            },
            {
              "internalType": "string",
              "name": "name",
              "type": "string"
            },
            {
              "internalType": "string",
              "name": "city",
              "type": "string"
            },
            {
              "internalType": "string",
              "name": "state",
              "type": "string"
            },
            {
              "internalType": "string",
              "name": "country",
              "type": "string"
            },
            {
              "internalType": "enum ShipmentContract.LocationType",
              "name": "locType",
              "type": "uint8"
            },
            {
              "internalType": "bool",
              "name": "is_verified",
              "type": "bool"
            }
          ],
          "internalType": "struct ShipmentContract.Location",
          "name": "next",
          "type": "tuple"
        },
        {
          "components": [
            {
              "internalType": "address",
              "name": "id",
              "type": "address"
            },
            {
              "internalType": "string",
              "name": "name",
              "type": "string"
            },
            {
              "internalType": "string",
              "name": "city",
              "type": "string"
            },
            {
              "internalType": "string",
              "name": "state",
              "type": "string"
            },
            {
              "internalType": "string",
              "name": "country",
              "type": "string"
            },
            {
              "internalType": "enum ShipmentContract.LocationType",
              "name": "locType",
              "type": "uint8"
            },
            {
              "internalType": "bool",
              "name": "is_verified",
              "type": "bool"
            }
          ],
          "internalType": "struct ShipmentContract.Location",
          "name": "destination",
          "type": "tuple"
        },
        {
          "internalType": "bool",
          "name": "is_delivered",
          "type": "bool"
        },
        {
          "internalType": "bool",
          "name": "is_verified",
          "type": "bool"
        }
      ],
      "stateMutability": "view",
      "type": "function",
      "constant": true
    },
    {
      "inputs": [
        {
          "internalType": "address",
          "name": "id",
          "type": "address"
        },
        {
          "internalType": "string",
          "name": "name",
          "type": "string"
        },
        {
          "internalType": "string",
          "name": "city",
          "type": "string"
        },
        {
          "internalType": "string",
          "name": "state",
          "type": "string"
        },
        {
          "internalType": "string",
          "name": "country",
          "type": "string"
        },
        {
          "internalType": "enum ShipmentContract.LocationType",
          "name": "loctype",
          "type": "uint8"
        }
      ],
      "name": "addOrUpdateLocation",
      "outputs": [],
      "stateMutability": "nonpayable",
      "type": "function"
    },
    {
      "inputs": [
        {
          "internalType": "uint128",
          "name": "shipmentId",
          "type": "uint128"
        },
        {
          "internalType": "address",
          "name": "sourceId",
          "type": "address"
        },
        {
          "internalType": "address",
          "name": "nextId",
          "type": "address"
        },
        {
          "internalType": "address",
          "name": "destinationId",
          "type": "address"
        }
      ],
      "name": "addShipment",
      "outputs": [],
      "stateMutability": "nonpayable",
      "type": "function"
    },
    {
      "inputs": [
        {
          "internalType": "uint128",
          "name": "shipmentId",
          "type": "uint128"
        },
        {
          "internalType": "address",
          "name": "nextId",
          "type": "address"
        }
      ],
      "name": "updateShipmentLocation",
      "outputs": [],
      "stateMutability": "nonpayable",
      "type": "function"
    },
    {
      "inputs": [
        {
          "internalType": "uint128",
          "name": "shipmentId",
          "type": "uint128"
        }
      ],
      "name": "shipmentDelivered",
      "outputs": [],
      "stateMutability": "nonpayable",
      "type": "function"
    }
  ],
  "bytecode": "0x6080604052600080546001600160a01b03191633179055612e55806100256000396000f3fe608060405234801561001057600080fd5b50600436106100625760003560e01c80631e78af32146100675780637509193c1461009657806379d6ea44146100ab578063bdc86aab146100be578063d8c789a1146100e4578063f82f116a146100f7575b600080fd5b61007a610075366004612a93565b61010a565b60405161008d9796959493929190612d40565b60405180910390f35b6100a96100a4366004612aae565b610c12565b005b6100a96100b9366004612a93565b61101d565b6100d16100cc3660046129a4565b6112f5565b60405161008d9796959493929190612c44565b6100a96100f23660046129c6565b611561565b6100a9610105366004612ae1565b6116c6565b6002602081815260009283526040928390208054845160e081019095526001820180546001600160a01b0316865293820180546001600160801b03909216959294929384019161015990612db8565b80601f016020809104026020016040519081016040528092919081815260200182805461018590612db8565b80156101d25780601f106101a7576101008083540402835291602001916101d2565b820191906000526020600020905b8154815290600101906020018083116101b557829003601f168201915b505050505081526020016002820180546101eb90612db8565b80601f016020809104026020016040519081016040528092919081815260200182805461021790612db8565b80156102645780601f1061023957610100808354040283529160200191610264565b820191906000526020600020905b81548152906001019060200180831161024757829003601f168201915b5050505050815260200160038201805461027d90612db8565b80601f01602080910402602001604051908101604052809291908181526020018280546102a990612db8565b80156102f65780601f106102cb576101008083540402835291602001916102f6565b820191906000526020600020905b8154815290600101906020018083116102d957829003601f168201915b5050505050815260200160048201805461030f90612db8565b80601f016020809104026020016040519081016040528092919081815260200182805461033b90612db8565b80156103885780601f1061035d57610100808354040283529160200191610388565b820191906000526020600020905b81548152906001019060200180831161036b57829003601f168201915b5050509183525050600582015460209091019060ff1660038111156103af576103af612df3565b60038111156103c0576103c0612df3565b815260059190910154610100900460ff1615156020918201526040805160e081019091526007840180546001600160a01b03168252600885018054949594929391929184019161040f90612db8565b80601f016020809104026020016040519081016040528092919081815260200182805461043b90612db8565b80156104885780601f1061045d57610100808354040283529160200191610488565b820191906000526020600020905b81548152906001019060200180831161046b57829003601f168201915b505050505081526020016002820180546104a190612db8565b80601f01602080910402602001604051908101604052809291908181526020018280546104cd90612db8565b801561051a5780601f106104ef5761010080835404028352916020019161051a565b820191906000526020600020905b8154815290600101906020018083116104fd57829003601f168201915b5050505050815260200160038201805461053390612db8565b80601f016020809104026020016040519081016040528092919081815260200182805461055f90612db8565b80156105ac5780601f10610581576101008083540402835291602001916105ac565b820191906000526020600020905b81548152906001019060200180831161058f57829003601f168201915b505050505081526020016004820180546105c590612db8565b80601f01602080910402602001604051908101604052809291908181526020018280546105f190612db8565b801561063e5780601f106106135761010080835404028352916020019161063e565b820191906000526020600020905b81548152906001019060200180831161062157829003601f168201915b5050509183525050600582015460209091019060ff16600381111561066557610665612df3565b600381111561067657610676612df3565b815260059190910154610100900460ff1615156020918201526040805160e08101909152600d840180546001600160a01b03168252600e8501805494959492939192918401916106c590612db8565b80601f01602080910402602001604051908101604052809291908181526020018280546106f190612db8565b801561073e5780601f106107135761010080835404028352916020019161073e565b820191906000526020600020905b81548152906001019060200180831161072157829003601f168201915b5050505050815260200160028201805461075790612db8565b80601f016020809104026020016040519081016040528092919081815260200182805461078390612db8565b80156107d05780601f106107a5576101008083540402835291602001916107d0565b820191906000526020600020905b8154815290600101906020018083116107b357829003601f168201915b505050505081526020016003820180546107e990612db8565b80601f016020809104026020016040519081016040528092919081815260200182805461081590612db8565b80156108625780601f1061083757610100808354040283529160200191610862565b820191906000526020600020905b81548152906001019060200180831161084557829003601f168201915b5050505050815260200160048201805461087b90612db8565b80601f01602080910402602001604051908101604052809291908181526020018280546108a790612db8565b80156108f45780601f106108c9576101008083540402835291602001916108f4565b820191906000526020600020905b8154815290600101906020018083116108d757829003601f168201915b5050509183525050600582015460209091019060ff16600381111561091b5761091b612df3565b600381111561092c5761092c612df3565b815260059190910154610100900460ff1615156020918201526040805160e081019091526013840180546001600160a01b03168252601485018054949594929391929184019161097b90612db8565b80601f01602080910402602001604051908101604052809291908181526020018280546109a790612db8565b80156109f45780601f106109c9576101008083540402835291602001916109f4565b820191906000526020600020905b8154815290600101906020018083116109d757829003601f168201915b50505050508152602001600282018054610a0d90612db8565b80601f0160208091040260200160405190810160405280929190818152602001828054610a3990612db8565b8015610a865780601f10610a5b57610100808354040283529160200191610a86565b820191906000526020600020905b815481529060010190602001808311610a6957829003601f168201915b50505050508152602001600382018054610a9f90612db8565b80601f0160208091040260200160405190810160405280929190818152602001828054610acb90612db8565b8015610b185780601f10610aed57610100808354040283529160200191610b18565b820191906000526020600020905b815481529060010190602001808311610afb57829003601f168201915b50505050508152602001600482018054610b3190612db8565b80601f0160208091040260200160405190810160405280929190818152602001828054610b5d90612db8565b8015610baa5780601f10610b7f57610100808354040283529160200191610baa565b820191906000526020600020905b815481529060010190602001808311610b8d57829003601f168201915b5050509183525050600582015460209091019060ff166003811115610bd157610bd1612df3565b6003811115610be257610be2612df3565b81526005919091015460ff6101009182900481161515602090930192909252601990930154919282821692041687565b6001600160801b038216600090815260026020526040902060190154610100900460ff16610c7d5760405162461bcd60e51b8152602060048201526013602482015272125b9d985b1a590814da1a5c1b595b9d081251606a1b60448201526064015b60405180910390fd5b6001600160a01b038116600090815260016020526040902060050154610100900460ff16610cbd5760405162461bcd60e51b8152600401610c7490612cc6565b60033360009081526001602052604090206005015460ff166003811115610ce657610ce6612df3565b1415610d045760405162461bcd60e51b8152600401610c7490612d09565b6001600160801b0382166000908152600260205260409020600d01546001600160a01b03163314610d775760405162461bcd60e51b815260206004820152601e60248201527f596f752063616e6e6f742075706461746520746865206c6f636174696f6e00006044820152606401610c74565b6001600160801b03821660009081526002602052604090206019015460ff1615610de35760405162461bcd60e51b815260206004820152601d60248201527f536869706d656e7420697320616c72656164792064656c6976657265640000006044820152606401610c74565b6001600160801b0382166000908152600260205260409020600d810180546007830180546001600160a01b0319166001600160a01b03909216919091178155600e8301805492939192600890920191610e3b90612db8565b610e469291906127c1565b506002820181600201908054610e5b90612db8565b610e669291906127c1565b506003820181600301908054610e7b90612db8565b610e869291906127c1565b506004820181600401908054610e9b90612db8565b610ea69291906127c1565b50600582810154908201805460ff9092169160ff19166001836003811115610ed057610ed0612df3565b02179055506005918201549101805460ff6101009384900416151590920261ff00199092169190911790556001600160a01b0380821660009081526001602081815260408084206001600160801b038816855260029092529092208254600d820180546001600160a01b031916919095161784559082018054929392600e90920191610f5b90612db8565b610f669291906127c1565b506002820181600201908054610f7b90612db8565b610f869291906127c1565b506003820181600301908054610f9b90612db8565b610fa69291906127c1565b506004820181600401908054610fbb90612db8565b610fc69291906127c1565b50600582810154908201805460ff9092169160ff19166001836003811115610ff057610ff0612df3565b02179055506005918201549101805461ff0019166101009283900460ff1615159092029190911790555050565b6001600160801b038116600090815260026020526040902060190154610100900460ff166110835760405162461bcd60e51b8152602060048201526013602482015272125b9d985b1a590814da1a5c1b595b9d081251606a1b6044820152606401610c74565b60033360009081526001602052604090206005015460ff1660038111156110ac576110ac612df3565b146110c95760405162461bcd60e51b8152600401610c7490612d09565b6001600160801b0381166000908152600260205260409020600d01546001600160a01b0316331461114c5760405162461bcd60e51b815260206004820152602760248201527f536869706d656e7420686173206e6f742061727269766564206174206465737460448201526634b730ba34b7b760c91b6064820152608401610c74565b6001600160801b03811660009081526002602052604090206019015460ff16156111b85760405162461bcd60e51b815260206004820152601d60248201527f536869706d656e7420697320616c72656164792064656c6976657265640000006044820152606401610c74565b6001600160801b0381166000908152600260205260409020600d810180546007830180546001600160a01b0319166001600160a01b03909216919091178155600e830180549293919260089092019161121090612db8565b61121b9291906127c1565b50600282018160020190805461123090612db8565b61123b9291906127c1565b50600382018160030190805461125090612db8565b61125b9291906127c1565b50600482018160040190805461127090612db8565b61127b9291906127c1565b50600582810154908201805460ff9092169160ff191660018360038111156112a5576112a5612df3565b02179055506005918201549101805461ff0019166101009283900460ff1615159092029190911790556001600160801b03166000908152600260205260409020601901805460ff19166001179055565b6001602081905260009182526040909120805491810180546001600160a01b039093169261132290612db8565b80601f016020809104026020016040519081016040528092919081815260200182805461134e90612db8565b801561139b5780601f106113705761010080835404028352916020019161139b565b820191906000526020600020905b81548152906001019060200180831161137e57829003601f168201915b5050505050908060020180546113b090612db8565b80601f01602080910402602001604051908101604052809291908181526020018280546113dc90612db8565b80156114295780601f106113fe57610100808354040283529160200191611429565b820191906000526020600020905b81548152906001019060200180831161140c57829003601f168201915b50505050509080600301805461143e90612db8565b80601f016020809104026020016040519081016040528092919081815260200182805461146a90612db8565b80156114b75780601f1061148c576101008083540402835291602001916114b7565b820191906000526020600020905b81548152906001019060200180831161149a57829003601f168201915b5050505050908060040180546114cc90612db8565b80601f01602080910402602001604051908101604052809291908181526020018280546114f890612db8565b80156115455780601f1061151a57610100808354040283529160200191611545565b820191906000526020600020905b81548152906001019060200180831161152857829003601f168201915b5050506005909301549192505060ff8082169161010090041687565b6000546001600160a01b0316331461158b5760405162461bcd60e51b8152600401610c7490612d09565b6040518060e00160405280876001600160a01b031681526020018681526020018581526020018481526020018381526020018260038111156115cf576115cf612df3565b8152600160209182018190526001600160a01b03898116600090815282845260409020845181546001600160a01b0319169216919091178155838301518051919361161f9385019291019061284c565b506040820151805161163b91600284019160209091019061284c565b506060820151805161165791600384019160209091019061284c565b506080820151805161167391600484019160209091019061284c565b5060a082015160058201805460ff1916600183600381111561169757611697612df3565b021790555060c09190910151600590910180549115156101000261ff0019909216919091179055505050505050565b6000546001600160a01b031633146116f05760405162461bcd60e51b8152600401610c7490612d09565b6001600160a01b038316600090815260016020526040902060050154610100900460ff1661176e5760405162461bcd60e51b815260206004820152602560248201527f496e76616c6964204c6f636174696f6e204164647265737320666f722027736f604482015264757263652760d81b6064820152608401610c74565b6001600160a01b038216600090815260016020526040902060050154610100900460ff166117ae5760405162461bcd60e51b8152600401610c7490612cc6565b6001600160a01b038116600090815260016020526040902060050154610100900460ff166118315760405162461bcd60e51b815260206004820152602a60248201527f496e76616c6964204c6f636174696f6e204164647265737320666f72202764656044820152697374696e6174696f6e2760b01b6064820152608401610c74565b6001600160801b038416600090815260026020526040902060190154610100900460ff16156118a25760405162461bcd60e51b815260206004820152601a60248201527f536869706d656e7420494420616c7265616479206578697374730000000000006044820152606401610c74565b6040805160e080820183526001600160801b03871682526001600160a01b038087166000908152600160208181529186902086519485019096528554909216835290840180549394828601949092840191906118fd90612db8565b80601f016020809104026020016040519081016040528092919081815260200182805461192990612db8565b80156119765780601f1061194b57610100808354040283529160200191611976565b820191906000526020600020905b81548152906001019060200180831161195957829003601f168201915b5050505050815260200160028201805461198f90612db8565b80601f01602080910402602001604051908101604052809291908181526020018280546119bb90612db8565b8015611a085780601f106119dd57610100808354040283529160200191611a08565b820191906000526020600020905b8154815290600101906020018083116119eb57829003601f168201915b50505050508152602001600382018054611a2190612db8565b80601f0160208091040260200160405190810160405280929190818152602001828054611a4d90612db8565b8015611a9a5780601f10611a6f57610100808354040283529160200191611a9a565b820191906000526020600020905b815481529060010190602001808311611a7d57829003601f168201915b50505050508152602001600482018054611ab390612db8565b80601f0160208091040260200160405190810160405280929190818152602001828054611adf90612db8565b8015611b2c5780601f10611b0157610100808354040283529160200191611b2c565b820191906000526020600020905b815481529060010190602001808311611b0f57829003601f168201915b5050509183525050600582015460209091019060ff166003811115611b5357611b53612df3565b6003811115611b6457611b64612df3565b815260059190910154610100900460ff1615156020918201529082526001600160a01b0386811660009081526001808452604091829020825160e081019093528054909316825282018054948401949193840191611bc190612db8565b80601f0160208091040260200160405190810160405280929190818152602001828054611bed90612db8565b8015611c3a5780601f10611c0f57610100808354040283529160200191611c3a565b820191906000526020600020905b815481529060010190602001808311611c1d57829003601f168201915b50505050508152602001600282018054611c5390612db8565b80601f0160208091040260200160405190810160405280929190818152602001828054611c7f90612db8565b8015611ccc5780601f10611ca157610100808354040283529160200191611ccc565b820191906000526020600020905b815481529060010190602001808311611caf57829003601f168201915b50505050508152602001600382018054611ce590612db8565b80601f0160208091040260200160405190810160405280929190818152602001828054611d1190612db8565b8015611d5e5780601f10611d3357610100808354040283529160200191611d5e565b820191906000526020600020905b815481529060010190602001808311611d4157829003601f168201915b50505050508152602001600482018054611d7790612db8565b80601f0160208091040260200160405190810160405280929190818152602001828054611da390612db8565b8015611df05780601f10611dc557610100808354040283529160200191611df0565b820191906000526020600020905b815481529060010190602001808311611dd357829003601f168201915b5050509183525050600582015460209091019060ff166003811115611e1757611e17612df3565b6003811115611e2857611e28612df3565b815260059190910154610100900460ff1615156020918201529082526001600160a01b0385811660009081526001808452604091829020825160e081019093528054909316825282018054948401949193840191611e8590612db8565b80601f0160208091040260200160405190810160405280929190818152602001828054611eb190612db8565b8015611efe5780601f10611ed357610100808354040283529160200191611efe565b820191906000526020600020905b815481529060010190602001808311611ee157829003601f168201915b50505050508152602001600282018054611f1790612db8565b80601f0160208091040260200160405190810160405280929190818152602001828054611f4390612db8565b8015611f905780601f10611f6557610100808354040283529160200191611f90565b820191906000526020600020905b815481529060010190602001808311611f7357829003601f168201915b50505050508152602001600382018054611fa990612db8565b80601f0160208091040260200160405190810160405280929190818152602001828054611fd590612db8565b80156120225780601f10611ff757610100808354040283529160200191612022565b820191906000526020600020905b81548152906001019060200180831161200557829003601f168201915b5050505050815260200160048201805461203b90612db8565b80601f016020809104026020016040519081016040528092919081815260200182805461206790612db8565b80156120b45780601f10612089576101008083540402835291602001916120b4565b820191906000526020600020905b81548152906001019060200180831161209757829003601f168201915b5050509183525050600582015460209091019060ff1660038111156120db576120db612df3565b60038111156120ec576120ec612df3565b815260059190910154610100900460ff1615156020918201529082526001600160a01b0384811660009081526001808452604091829020825160e08101909352805490931682528201805494840194919384019161214990612db8565b80601f016020809104026020016040519081016040528092919081815260200182805461217590612db8565b80156121c25780601f10612197576101008083540402835291602001916121c2565b820191906000526020600020905b8154815290600101906020018083116121a557829003601f168201915b505050505081526020016002820180546121db90612db8565b80601f016020809104026020016040519081016040528092919081815260200182805461220790612db8565b80156122545780601f1061222957610100808354040283529160200191612254565b820191906000526020600020905b81548152906001019060200180831161223757829003601f168201915b5050505050815260200160038201805461226d90612db8565b80601f016020809104026020016040519081016040528092919081815260200182805461229990612db8565b80156122e65780601f106122bb576101008083540402835291602001916122e6565b820191906000526020600020905b8154815290600101906020018083116122c957829003601f168201915b505050505081526020016004820180546122ff90612db8565b80601f016020809104026020016040519081016040528092919081815260200182805461232b90612db8565b80156123785780601f1061234d57610100808354040283529160200191612378565b820191906000526020600020905b81548152906001019060200180831161235b57829003601f168201915b5050509183525050600582015460209091019060ff16600381111561239f5761239f612df3565b60038111156123b0576123b0612df3565b815260059190910154610100900460ff1615156020918201529082526000828201819052600160409384018190526001600160801b038981168352600280855294909220855181546fffffffffffffffffffffffffffffffff1916931692909217825584830151805191830180546001600160a01b0319166001600160a01b039093169290921782558084015180519395919492936124579392870192919091019061284c565b506040820151805161247391600284019160209091019061284c565b506060820151805161248f91600384019160209091019061284c565b50608082015180516124ab91600484019160209091019061284c565b5060a082015160058201805460ff191660018360038111156124cf576124cf612df3565b021790555060c091909101516005909101805461ff00191661010092151592909202919091179055604082015180516007830180546001600160a01b0319166001600160a01b039092169190911781556020808301518051612537926008870192019061284c565b506040820151805161255391600284019160209091019061284c565b506060820151805161256f91600384019160209091019061284c565b506080820151805161258b91600484019160209091019061284c565b5060a082015160058201805460ff191660018360038111156125af576125af612df3565b021790555060c091909101516005909101805461ff0019166101009215159290920291909117905560608201518051600d830180546001600160a01b0319166001600160a01b03909216919091178155602080830151805161261792600e870192019061284c565b506040820151805161263391600284019160209091019061284c565b506060820151805161264f91600384019160209091019061284c565b506080820151805161266b91600484019160209091019061284c565b5060a082015160058201805460ff1916600183600381111561268f5761268f612df3565b021790555060c091909101516005909101805461ff00191661010092151592909202919091179055608082015180516013830180546001600160a01b0319166001600160a01b0390921691909117815560208083015180516126f7926014870192019061284c565b506040820151805161271391600284019160209091019061284c565b506060820151805161272f91600384019160209091019061284c565b506080820151805161274b91600484019160209091019061284c565b5060a082015160058201805460ff1916600183600381111561276f5761276f612df3565b021790555060c0918201516005909101805491151561010090810261ff00199384161790915560a08501516019909401805495909301511515029215151661ffff199093169290921717905550505050565b8280546127cd90612db8565b90600052602060002090601f0160209004810192826127ef576000855561283c565b82601f10612800578054855561283c565b8280016001018555821561283c57600052602060002091601f016020900482015b8281111561283c578254825591600101919060010190612821565b506128489291506128c0565b5090565b82805461285890612db8565b90600052602060002090601f01602090048101928261287a576000855561283c565b82601f1061289357805160ff191683800117855561283c565b8280016001018555821561283c579182015b8281111561283c5782518255916020019190600101906128a5565b5b8082111561284857600081556001016128c1565b80356001600160a01b03811681146128ec57600080fd5b919050565b8035600481106128ec57600080fd5b600082601f83011261291157600080fd5b813567ffffffffffffffff8082111561292c5761292c612e09565b604051601f8301601f19908116603f0116810190828211818310171561295457612954612e09565b8160405283815286602085880101111561296d57600080fd5b836020870160208301376000602085830101528094505050505092915050565b80356001600160801b03811681146128ec57600080fd5b6000602082840312156129b657600080fd5b6129bf826128d5565b9392505050565b60008060008060008060c087890312156129df57600080fd5b6129e8876128d5565b9550602087013567ffffffffffffffff80821115612a0557600080fd5b612a118a838b01612900565b96506040890135915080821115612a2757600080fd5b612a338a838b01612900565b95506060890135915080821115612a4957600080fd5b612a558a838b01612900565b94506080890135915080821115612a6b57600080fd5b50612a7889828a01612900565b925050612a8760a088016128f1565b90509295509295509295565b600060208284031215612aa557600080fd5b6129bf8261298d565b60008060408385031215612ac157600080fd5b612aca8361298d565b9150612ad8602084016128d5565b90509250929050565b60008060008060808587031215612af757600080fd5b612b008561298d565b9350612b0e602086016128d5565b9250612b1c604086016128d5565b9150612b2a606086016128d5565b905092959194509250565b60048110612b5357634e487b7160e01b600052602160045260246000fd5b9052565b6000815180845260005b81811015612b7d57602081850181015186830182015201612b61565b81811115612b8f576000602083870101525b50601f01601f19169290920160200192915050565b60018060a01b0381511682526000602082015160e06020850152612bcb60e0850182612b57565b905060408301518482036040860152612be48282612b57565b91505060608301518482036060860152612bfe8282612b57565b91505060808301518482036080860152612c188282612b57565b91505060a0830151612c2d60a0860182612b35565b5060c0830151151560c08501528091505092915050565b6001600160a01b038816815260e060208201819052600090612c6890830189612b57565b8281036040840152612c7a8189612b57565b90508281036060840152612c8e8188612b57565b90508281036080840152612ca28187612b57565b915050612cb260a0830185612b35565b82151560c083015298975050505050505050565b60208082526023908201527f496e76616c6964204c6f636174696f6e204164647265737320666f7220276e6560408201526278742760e81b606082015260800190565b6020808252601e908201527f596f752063616e6e6f7420706572666f726d207468697320616374696f6e0000604082015260600190565b6001600160801b038816815260e060208201526000612d6260e0830189612ba4565b8281036040840152612d748189612ba4565b90508281036060840152612d888188612ba4565b90508281036080840152612d9c8187612ba4565b94151560a0840152505090151560c09091015295945050505050565b600181811c90821680612dcc57607f821691505b60208210811415612ded57634e487b7160e01b600052602260045260246000fd5b50919050565b634e487b7160e01b600052602160045260246000fd5b634e487b7160e01b600052604160045260246000fdfea2646970667358221220571bd4680e1cdb09aff9dfa7852c5a05bbeaf3668af1619aee37efdbe20038e964736f6c63430008060033",
  "immutableReferences": {},
  "source": "// SPDX-License-Identifier: GPL-3.0\r\npragma solidity ^0.8.6;\r\n\r\ncontract ShipmentContract {\r\n    enum LocationType {\r\n        MainWareHouse,\r\n        SubWareHouse,\r\n        CityHub,\r\n        Customer\r\n    }\r\n\r\n    struct Location {\r\n        address id;\r\n        string name;\r\n        string city;\r\n        string state;\r\n        string country;\r\n        LocationType locType;\r\n        bool is_verified;\r\n    }\r\n\r\n    struct Shipment {\r\n        uint128 id;\r\n        Location source;\r\n        Location current;\r\n        Location next;\r\n        Location destination;\r\n        bool is_delivered;\r\n        bool is_verified;\r\n    }\r\n\r\n    address owner;\r\n    mapping(address => Location) public locations;\r\n    mapping(uint128 => Shipment) public shipments;\r\n\r\n    constructor() payable {\r\n        owner = msg.sender;\r\n    }\r\n\r\n    modifier onlyOwner() {\r\n        require(msg.sender == owner, \"You cannot perform this action\");\r\n        _;\r\n    }\r\n\r\n    function addOrUpdateLocation(\r\n        address id,\r\n        string memory name,\r\n        string memory city,\r\n        string memory state,\r\n        string memory country,\r\n        LocationType loctype\r\n    ) public onlyOwner {\r\n        locations[id] = Location(id, name, city, state, country, loctype, true);\r\n    }\r\n\r\n    function addShipment(\r\n        uint128 shipmentId,\r\n        address sourceId,\r\n        address nextId,\r\n        address destinationId\r\n    ) public onlyOwner {\r\n        require(\r\n            locations[sourceId].is_verified,\r\n            \"Invalid Location Address for 'source'\"\r\n        );\r\n        require(\r\n            locations[nextId].is_verified,\r\n            \"Invalid Location Address for 'next'\"\r\n        );\r\n        require(\r\n            locations[destinationId].is_verified,\r\n            \"Invalid Location Address for 'destination'\"\r\n        );\r\n        require(\r\n            !shipments[shipmentId].is_verified,\r\n            \"Shipment ID already exists\"\r\n        );\r\n        shipments[shipmentId] = Shipment(\r\n            shipmentId,\r\n            locations[sourceId],\r\n            locations[sourceId],\r\n            locations[nextId],\r\n            locations[destinationId],\r\n            false,\r\n            true\r\n        );\r\n    }\r\n\r\n    function updateShipmentLocation(uint128 shipmentId, address nextId) public {\r\n        require(shipments[shipmentId].is_verified, \"Invalid Shipment ID\");\r\n        require(\r\n            locations[nextId].is_verified,\r\n            \"Invalid Location Address for 'next'\"\r\n        );\r\n        require(\r\n            locations[msg.sender].locType != LocationType.Customer,\r\n            \"You cannot perform this action\"\r\n        );\r\n        require(\r\n            msg.sender == shipments[shipmentId].next.id,\r\n            \"You cannot update the location\"\r\n        );\r\n        require(\r\n            !shipments[shipmentId].is_delivered,\r\n            \"Shipment is already delivered\"\r\n        );\r\n        shipments[shipmentId].current = shipments[shipmentId].next;\r\n        shipments[shipmentId].next = locations[nextId];\r\n    }\r\n\r\n    function shipmentDelivered(uint128 shipmentId) public {\r\n        require(shipments[shipmentId].is_verified, \"Invalid Shipment ID\");\r\n        require(\r\n            locations[msg.sender].locType == LocationType.Customer,\r\n            \"You cannot perform this action\"\r\n        );\r\n        require(\r\n            msg.sender == shipments[shipmentId].next.id,\r\n            \"Shipment has not arrived at destination\"\r\n        );\r\n        require(\r\n            !shipments[shipmentId].is_delivered,\r\n            \"Shipment is already delivered\"\r\n        );\r\n        shipments[shipmentId].current = shipments[shipmentId].next;\r\n        shipments[shipmentId].is_delivered = true;\r\n    }\r\n}\r\n",
  "sourcePath": "D:\\WorkSpace\\ShipmentChain\\contracts\\ShipmentContract.sol",
  "compiler": {
    "name": "solc",
    "version": "0.8.6+commit.11564f7e.Emscripten.clang"
  },
  "schemaVersion": "3.4.2",
  "updatedAt": "2021-07-31T07:05:47.444Z",
  "networkType": "ethereum",
  "devdoc": {
    "kind": "dev",
    "methods": {},
    "version": 1
  },
  "userdoc": {
    "kind": "user",
    "methods": {},
    "version": 1
  }
}